{
  "contractName": "Court",
  "abi": [
    {
      "inputs": [],
      "payable": false,
      "stateMutability": "nonpayable",
      "type": "constructor"
    },
    {
      "anonymous": false,
      "inputs": [
        {
          "indexed": false,
          "internalType": "uint256",
          "name": "_caseId",
          "type": "uint256"
        }
      ],
      "name": "caseCreated",
      "type": "event"
    },
    {
      "anonymous": false,
      "inputs": [
        {
          "indexed": false,
          "internalType": "uint256",
          "name": "_judgeId",
          "type": "uint256"
        }
      ],
      "name": "judgeRegistered",
      "type": "event"
    },
    {
      "anonymous": false,
      "inputs": [
        {
          "indexed": false,
          "internalType": "uint256",
          "name": "_lawyerId",
          "type": "uint256"
        }
      ],
      "name": "lawyerRegistered",
      "type": "event"
    },
    {
      "constant": true,
      "inputs": [
        {
          "internalType": "uint256",
          "name": "",
          "type": "uint256"
        }
      ],
      "name": "cases",
      "outputs": [
        {
          "internalType": "address",
          "name": "judge",
          "type": "address"
        },
        {
          "internalType": "address",
          "name": "lawyer1",
          "type": "address"
        },
        {
          "internalType": "address",
          "name": "lawyer2",
          "type": "address"
        },
        {
          "internalType": "string",
          "name": "party_1_name",
          "type": "string"
        },
        {
          "internalType": "string",
          "name": "party_2_name",
          "type": "string"
        },
        {
          "internalType": "string",
          "name": "details",
          "type": "string"
        }
      ],
      "payable": false,
      "stateMutability": "view",
      "type": "function"
    },
    {
      "constant": true,
      "inputs": [
        {
          "internalType": "uint256",
          "name": "",
          "type": "uint256"
        }
      ],
      "name": "judges",
      "outputs": [
        {
          "internalType": "string",
          "name": "name",
          "type": "string"
        },
        {
          "internalType": "uint256",
          "name": "phone",
          "type": "uint256"
        },
        {
          "internalType": "string",
          "name": "email",
          "type": "string"
        },
        {
          "internalType": "address",
          "name": "addr",
          "type": "address"
        },
        {
          "internalType": "string",
          "name": "pubkey",
          "type": "string"
        }
      ],
      "payable": false,
      "stateMutability": "view",
      "type": "function"
    },
    {
      "constant": true,
      "inputs": [
        {
          "internalType": "uint256",
          "name": "",
          "type": "uint256"
        }
      ],
      "name": "lawyers",
      "outputs": [
        {
          "internalType": "string",
          "name": "name",
          "type": "string"
        },
        {
          "internalType": "uint256",
          "name": "phone",
          "type": "uint256"
        },
        {
          "internalType": "string",
          "name": "email",
          "type": "string"
        },
        {
          "internalType": "address",
          "name": "addr",
          "type": "address"
        },
        {
          "internalType": "string",
          "name": "pubkey",
          "type": "string"
        }
      ],
      "payable": false,
      "stateMutability": "view",
      "type": "function"
    },
    {
      "constant": true,
      "inputs": [],
      "name": "owner",
      "outputs": [
        {
          "internalType": "address",
          "name": "",
          "type": "address"
        }
      ],
      "payable": false,
      "stateMutability": "view",
      "type": "function"
    },
    {
      "constant": false,
      "inputs": [
        {
          "internalType": "string",
          "name": "_name",
          "type": "string"
        },
        {
          "internalType": "uint256",
          "name": "_phone",
          "type": "uint256"
        },
        {
          "internalType": "string",
          "name": "_email",
          "type": "string"
        },
        {
          "internalType": "address",
          "name": "_addr",
          "type": "address"
        },
        {
          "internalType": "string",
          "name": "_pubkey",
          "type": "string"
        }
      ],
      "name": "registerLawyer",
      "outputs": [],
      "payable": false,
      "stateMutability": "nonpayable",
      "type": "function"
    },
    {
      "constant": false,
      "inputs": [
        {
          "internalType": "string",
          "name": "_name",
          "type": "string"
        },
        {
          "internalType": "uint256",
          "name": "_phone",
          "type": "uint256"
        },
        {
          "internalType": "string",
          "name": "_email",
          "type": "string"
        },
        {
          "internalType": "address",
          "name": "_addr",
          "type": "address"
        },
        {
          "internalType": "string",
          "name": "_pubkey",
          "type": "string"
        }
      ],
      "name": "registerJudge",
      "outputs": [],
      "payable": false,
      "stateMutability": "nonpayable",
      "type": "function"
    },
    {
      "constant": false,
      "inputs": [
        {
          "internalType": "uint256",
          "name": "_judgeId",
          "type": "uint256"
        },
        {
          "internalType": "uint256",
          "name": "_lawyer1Id",
          "type": "uint256"
        },
        {
          "internalType": "uint256",
          "name": "_lawyer2Id",
          "type": "uint256"
        },
        {
          "internalType": "string",
          "name": "_party_1_name",
          "type": "string"
        },
        {
          "internalType": "string",
          "name": "_party_2_name",
          "type": "string"
        },
        {
          "internalType": "string",
          "name": "_details",
          "type": "string"
        }
      ],
      "name": "newCase",
      "outputs": [],
      "payable": false,
      "stateMutability": "nonpayable",
      "type": "function"
    },
    {
      "constant": false,
      "inputs": [
        {
          "internalType": "uint256",
          "name": "_caseId",
          "type": "uint256"
        },
        {
          "internalType": "string",
          "name": "_fileHash",
          "type": "string"
        },
        {
          "internalType": "string",
          "name": "_fileType",
          "type": "string"
        }
      ],
      "name": "uploadEvidence",
      "outputs": [],
      "payable": false,
      "stateMutability": "nonpayable",
      "type": "function"
    },
    {
      "constant": true,
      "inputs": [
        {
          "internalType": "uint256",
          "name": "_caseId",
          "type": "uint256"
        }
      ],
      "name": "getEvidenceCount",
      "outputs": [
        {
          "internalType": "uint256",
          "name": "",
          "type": "uint256"
        }
      ],
      "payable": false,
      "stateMutability": "view",
      "type": "function"
    },
    {
      "constant": true,
      "inputs": [
        {
          "internalType": "uint256",
          "name": "_caseId",
          "type": "uint256"
        },
        {
          "internalType": "uint256",
          "name": "_evidenceNo",
          "type": "uint256"
        }
      ],
      "name": "getEvidence",
      "outputs": [
        {
          "internalType": "string",
          "name": "FileHash",
          "type": "string"
        },
        {
          "internalType": "string",
          "name": "FileType",
          "type": "string"
        }
      ],
      "payable": false,
      "stateMutability": "view",
      "type": "function"
    },
    {
      "constant": false,
      "inputs": [
        {
          "internalType": "uint256",
          "name": "_caseId",
          "type": "uint256"
        },
        {
          "internalType": "string",
          "name": "_transcript",
          "type": "string"
        }
      ],
      "name": "uploadTranscript",
      "outputs": [],
      "payable": false,
      "stateMutability": "nonpayable",
      "type": "function"
    },
    {
      "constant": true,
      "inputs": [
        {
          "internalType": "uint256",
          "name": "_caseId",
          "type": "uint256"
        }
      ],
      "name": "getTranscriptsCount",
      "outputs": [
        {
          "internalType": "uint256",
          "name": "",
          "type": "uint256"
        }
      ],
      "payable": false,
      "stateMutability": "view",
      "type": "function"
    },
    {
      "constant": true,
      "inputs": [
        {
          "internalType": "uint256",
          "name": "_caseId",
          "type": "uint256"
        },
        {
          "internalType": "uint256",
          "name": "_transcriptNo",
          "type": "uint256"
        }
      ],
      "name": "getTranscript",
      "outputs": [
        {
          "internalType": "string",
          "name": "",
          "type": "string"
        }
      ],
      "payable": false,
      "stateMutability": "view",
      "type": "function"
    },
    {
      "constant": false,
      "inputs": [
        {
          "internalType": "bool",
          "name": "_isLawyer",
          "type": "bool"
        },
        {
          "internalType": "uint256",
          "name": "_ljId",
          "type": "uint256"
        },
        {
          "internalType": "uint256",
          "name": "_caseId",
          "type": "uint256"
        },
        {
          "internalType": "string",
          "name": "_key",
          "type": "string"
        }
      ],
      "name": "addEncryptedKey",
      "outputs": [],
      "payable": false,
      "stateMutability": "nonpayable",
      "type": "function"
    },
    {
      "constant": true,
      "inputs": [
        {
          "internalType": "bool",
          "name": "_isLawyer",
          "type": "bool"
        },
        {
          "internalType": "uint256",
          "name": "_ljId",
          "type": "uint256"
        },
        {
          "internalType": "uint256",
          "name": "_caseId",
          "type": "uint256"
        }
      ],
      "name": "getEncryptedKey",
      "outputs": [
        {
          "internalType": "string",
          "name": "",
          "type": "string"
        }
      ],
      "payable": false,
      "stateMutability": "view",
      "type": "function"
    },
    {
      "constant": true,
      "inputs": [
        {
          "internalType": "uint256",
          "name": "_caseId",
          "type": "uint256"
        }
      ],
      "name": "getCaseAddresses",
      "outputs": [
        {
          "internalType": "address",
          "name": "judge",
          "type": "address"
        },
        {
          "internalType": "address",
          "name": "lawyer1",
          "type": "address"
        },
        {
          "internalType": "address",
          "name": "lawyer2",
          "type": "address"
        }
      ],
      "payable": false,
      "stateMutability": "view",
      "type": "function"
    }
  ],
  "bytecode": "0x608060405234801561001057600080fd5b50336000806101000a81548173ffffffffffffffffffffffffffffffffffffffff021916908373ffffffffffffffffffffffffffffffffffffffff160217905550612ceb806100606000396000f3fe608060405234801561001057600080fd5b50600436106101005760003560e01c8063a33bf6d211610097578063d7bda86111610066578063d7bda86114610c96578063f09790dd14610ea9578063f1b8a98c146110c1578063f343d446146111de57610100565b8063a33bf6d21461064c578063a6d47c1914610805578063b06b036814610a18578063cc5f456214610bd157610100565b80638da5cb5b116100d35780638da5cb5b146104525780638fa1f8d41461049c578063991d7e5b146105595780639d7a05c61461059b57610100565b8063423aee311461010557806356993cac146101475780635b2647c61461021b5780636b27cc0f14610377575b600080fd5b6101316004803603602081101561011b57600080fd5b81019080803590602001909291905050506113e5565b6040518082815260200191505060405180910390f35b6101736004803603602081101561015d57600080fd5b8101908080359060200190929190505050611410565b604051808473ffffffffffffffffffffffffffffffffffffffff1673ffffffffffffffffffffffffffffffffffffffff1681526020018373ffffffffffffffffffffffffffffffffffffffff1673ffffffffffffffffffffffffffffffffffffffff1681526020018273ffffffffffffffffffffffffffffffffffffffff1673ffffffffffffffffffffffffffffffffffffffff168152602001935050505060405180910390f35b6103756004803603606081101561023157600080fd5b81019080803590602001909291908035906020019064010000000081111561025857600080fd5b82018360208201111561026a57600080fd5b8035906020019184600183028401116401000000008311171561028c57600080fd5b91908080601f016020809104026020016040519081016040528093929190818152602001838380828437600081840152601f19601f820116905080830192505050505050509192919290803590602001906401000000008111156102ef57600080fd5b82018360208201111561030157600080fd5b8035906020019184600183028401116401000000008311171561032357600080fd5b91908080601f016020809104026020016040519081016040528093929190818152602001838380828437600081840152601f19601f8201169050808301925050505050505091929192905050506114df565b005b6104506004803603608081101561038d57600080fd5b810190808035151590602001909291908035906020019092919080359060200190929190803590602001906401000000008111156103ca57600080fd5b8201836020820111156103dc57600080fd5b803590602001918460018302840111640100000000831117156103fe57600080fd5b91908080601f016020809104026020016040519081016040528093929190818152602001838380828437600081840152601f19601f82011690508083019250505050505050919291929050505061164c565b005b61045a61173f565b604051808273ffffffffffffffffffffffffffffffffffffffff1673ffffffffffffffffffffffffffffffffffffffff16815260200191505060405180910390f35b6104de600480360360608110156104b257600080fd5b810190808035151590602001909291908035906020019092919080359060200190929190505050611764565b6040518080602001828103825283818151815260200191508051906020019080838360005b8381101561051e578082015181840152602081019050610503565b50505050905090810190601f16801561054b5780820380516001836020036101000a031916815260200191505b509250505060405180910390f35b6105856004803603602081101561056f57600080fd5b810190808035906020019092919050505061190d565b6040518082815260200191505060405180910390f35b6105d1600480360360408110156105b157600080fd5b810190808035906020019092919080359060200190929190505050611938565b6040518080602001828103825283818151815260200191508051906020019080838360005b838110156106115780820151818401526020810190506105f6565b50505050905090810190601f16801561063e5780820380516001836020036101000a031916815260200191505b509250505060405180910390f35b6106786004803603602081101561066257600080fd5b8101908080359060200190929190505050611a0e565b6040518080602001868152602001806020018573ffffffffffffffffffffffffffffffffffffffff1673ffffffffffffffffffffffffffffffffffffffff16815260200180602001848103845289818151815260200191508051906020019080838360005b838110156106f85780820151818401526020810190506106dd565b50505050905090810190601f1680156107255780820380516001836020036101000a031916815260200191505b50848103835287818151815260200191508051906020019080838360005b8381101561075e578082015181840152602081019050610743565b50505050905090810190601f16801561078b5780820380516001836020036101000a031916815260200191505b50848103825285818151815260200191508051906020019080838360005b838110156107c45780820151818401526020810190506107a9565b50505050905090810190601f1680156107f15780820380516001836020036101000a031916815260200191505b509850505050505050505060405180910390f35b610a16600480360360a081101561081b57600080fd5b810190808035906020019064010000000081111561083857600080fd5b82018360208201111561084a57600080fd5b8035906020019184600183028401116401000000008311171561086c57600080fd5b91908080601f016020809104026020016040519081016040528093929190818152602001838380828437600081840152601f19601f82011690508083019250505050505050919291929080359060200190929190803590602001906401000000008111156108d957600080fd5b8201836020820111156108eb57600080fd5b8035906020019184600183028401116401000000008311171561090d57600080fd5b91908080601f016020809104026020016040519081016040528093929190818152602001838380828437600081840152601f19601f820116905080830192505050505050509192919290803573ffffffffffffffffffffffffffffffffffffffff1690602001909291908035906020019064010000000081111561099057600080fd5b8201836020820111156109a257600080fd5b803590602001918460018302840111640100000000831117156109c457600080fd5b91908080601f016020809104026020016040519081016040528093929190818152602001838380828437600081840152601f19601f820116905080830192505050505050509192919290505050611c39565b005b610a4460048036036020811015610a2e57600080fd5b8101908080359060200190929190505050611d9f565b6040518080602001868152602001806020018573ffffffffffffffffffffffffffffffffffffffff1673ffffffffffffffffffffffffffffffffffffffff16815260200180602001848103845289818151815260200191508051906020019080838360005b83811015610ac4578082015181840152602081019050610aa9565b50505050905090810190601f168015610af15780820380516001836020036101000a031916815260200191505b50848103835287818151815260200191508051906020019080838360005b83811015610b2a578082015181840152602081019050610b0f565b50505050905090810190601f168015610b575780820380516001836020036101000a031916815260200191505b50848103825285818151815260200191508051906020019080838360005b83811015610b90578082015181840152602081019050610b75565b50505050905090810190601f168015610bbd5780820380516001836020036101000a031916815260200191505b509850505050505050505060405180910390f35b610c9460048036036040811015610be757600080fd5b810190808035906020019092919080359060200190640100000000811115610c0e57600080fd5b820183602082011115610c2057600080fd5b80359060200191846001830284011164010000000083111715610c4257600080fd5b91908080601f016020809104026020016040519081016040528093929190818152602001838380828437600081840152601f19601f820116905080830192505050505050509192919290505050611fca565b005b610ea7600480360360a0811015610cac57600080fd5b8101908080359060200190640100000000811115610cc957600080fd5b820183602082011115610cdb57600080fd5b80359060200191846001830284011164010000000083111715610cfd57600080fd5b91908080601f016020809104026020016040519081016040528093929190818152602001838380828437600081840152601f19601f8201169050808301925050505050505091929192908035906020019092919080359060200190640100000000811115610d6a57600080fd5b820183602082011115610d7c57600080fd5b80359060200191846001830284011164010000000083111715610d9e57600080fd5b91908080601f016020809104026020016040519081016040528093929190818152602001838380828437600081840152601f19601f820116905080830192505050505050509192919290803573ffffffffffffffffffffffffffffffffffffffff16906020019092919080359060200190640100000000811115610e2157600080fd5b820183602082011115610e3357600080fd5b80359060200191846001830284011164010000000083111715610e5557600080fd5b91908080601f016020809104026020016040519081016040528093929190818152602001838380828437600081840152601f19601f820116905080830192505050505050509192919290505050612082565b005b610ed560048036036020811015610ebf57600080fd5b81019080803590602001909291905050506121e9565b604051808773ffffffffffffffffffffffffffffffffffffffff1673ffffffffffffffffffffffffffffffffffffffff1681526020018673ffffffffffffffffffffffffffffffffffffffff1673ffffffffffffffffffffffffffffffffffffffff1681526020018573ffffffffffffffffffffffffffffffffffffffff1673ffffffffffffffffffffffffffffffffffffffff168152602001806020018060200180602001848103845287818151815260200191508051906020019080838360005b83811015610fb3578082015181840152602081019050610f98565b50505050905090810190601f168015610fe05780820380516001836020036101000a031916815260200191505b50848103835286818151815260200191508051906020019080838360005b83811015611019578082015181840152602081019050610ffe565b50505050905090810190601f1680156110465780820380516001836020036101000a031916815260200191505b50848103825285818151815260200191508051906020019080838360005b8381101561107f578082015181840152602081019050611064565b50505050905090810190601f1680156110ac5780820380516001836020036101000a031916815260200191505b50995050505050505050505060405180910390f35b6110f7600480360360408110156110d757600080fd5b81019080803590602001909291908035906020019092919050505061245a565b604051808060200180602001838103835285818151815260200191508051906020019080838360005b8381101561113b578082015181840152602081019050611120565b50505050905090810190601f1680156111685780820380516001836020036101000a031916815260200191505b50838103825284818151815260200191508051906020019080838360005b838110156111a1578082015181840152602081019050611186565b50505050905090810190601f1680156111ce5780820380516001836020036101000a031916815260200191505b5094505050505060405180910390f35b6113e3600480360360c08110156111f457600080fd5b810190808035906020019092919080359060200190929190803590602001909291908035906020019064010000000081111561122f57600080fd5b82018360208201111561124157600080fd5b8035906020019184600183028401116401000000008311171561126357600080fd5b91908080601f016020809104026020016040519081016040528093929190818152602001838380828437600081840152601f19601f820116905080830192505050505050509192919290803590602001906401000000008111156112c657600080fd5b8201836020820111156112d857600080fd5b803590602001918460018302840111640100000000831117156112fa57600080fd5b91908080601f016020809104026020016040519081016040528093929190818152602001838380828437600081840152601f19601f8201169050808301925050505050505091929192908035906020019064010000000081111561135d57600080fd5b82018360208201111561136f57600080fd5b8035906020019184600183028401116401000000008311171561139157600080fd5b91908080601f016020809104026020016040519081016040528093929190818152602001838380828437600081840152601f19601f820116905080830192505050505050509192919290505050612606565b005b6000600382815481106113f457fe5b9060005260206000209060090201600301805490509050919050565b60008060006003848154811061142257fe5b906000526020600020906009020160000160009054906101000a900473ffffffffffffffffffffffffffffffffffffffff166003858154811061146157fe5b906000526020600020906009020160010160009054906101000a900473ffffffffffffffffffffffffffffffffffffffff16600386815481106114a057fe5b906000526020600020906009020160020160009054906101000a900473ffffffffffffffffffffffffffffffffffffffff169250925092509193909250565b6000809054906101000a900473ffffffffffffffffffffffffffffffffffffffff1673ffffffffffffffffffffffffffffffffffffffff163373ffffffffffffffffffffffffffffffffffffffff161461153857600080fd5b6060829050604051806020016040528060008152508051906020012083805190602001201415801561158757506040518060200160405280600081525080519060200120828051906020012014155b61159057600080fd5b6003848154811061159d57fe5b90600052602060002090600902016003018390806001815401808255809150509060018203906000526020600020016000909192909190915090805190602001906115e99291906129a5565b5050600384815481106115f857fe5b90600052602060002090600902016004018190806001815401808255809150509060018203906000526020600020016000909192909190915090805190602001906116449291906129a5565b505050505050565b6000809054906101000a900473ffffffffffffffffffffffffffffffffffffffff1673ffffffffffffffffffffffffffffffffffffffff163373ffffffffffffffffffffffffffffffffffffffff16146116a557600080fd5b83156116f45780600184815481106116b957fe5b9060005260206000209060060201600501600084815260200190815260200160002090805190602001906116ee9291906129a5565b50611739565b806002848154811061170257fe5b9060005260206000209060060201600501600084815260200190815260200160002090805190602001906117379291906129a5565b505b50505050565b6000809054906101000a900473ffffffffffffffffffffffffffffffffffffffff1681565b6060831561183b576001838154811061177957fe5b906000526020600020906006020160050160008381526020019081526020016000208054600181600116156101000203166002900480601f01602080910402602001604051908101604052809291908181526020018280546001816001161561010002031660029004801561182f5780601f106118045761010080835404028352916020019161182f565b820191906000526020600020905b81548152906001019060200180831161181257829003601f168201915b50505050509050611906565b6002838154811061184857fe5b906000526020600020906006020160050160008381526020019081526020016000208054600181600116156101000203166002900480601f0160208091040260200160405190810160405280929190818152602001828054600181600116156101000203166002900480156118fe5780601f106118d3576101008083540402835291602001916118fe565b820191906000526020600020905b8154815290600101906020018083116118e157829003601f168201915b505050505090505b9392505050565b60006003828154811061191c57fe5b9060005260206000209060090201600801805490509050919050565b60606003838154811061194757fe5b9060005260206000209060090201600801828154811061196357fe5b906000526020600020018054600181600116156101000203166002900480601f016020809104026020016040519081016040528092919081815260200182805460018160011615610100020316600290048015611a015780601f106119d657610100808354040283529160200191611a01565b820191906000526020600020905b8154815290600101906020018083116119e457829003601f168201915b5050505050905092915050565b60018181548110611a1b57fe5b9060005260206000209060060201600091509050806000018054600181600116156101000203166002900480601f016020809104026020016040519081016040528092919081815260200182805460018160011615610100020316600290048015611ac75780601f10611a9c57610100808354040283529160200191611ac7565b820191906000526020600020905b815481529060010190602001808311611aaa57829003601f168201915b505050505090806001015490806002018054600181600116156101000203166002900480601f016020809104026020016040519081016040528092919081815260200182805460018160011615610100020316600290048015611b6b5780601f10611b4057610100808354040283529160200191611b6b565b820191906000526020600020905b815481529060010190602001808311611b4e57829003601f168201915b5050505050908060030160009054906101000a900473ffffffffffffffffffffffffffffffffffffffff1690806004018054600181600116156101000203166002900480601f016020809104026020016040519081016040528092919081815260200182805460018160011615610100020316600290048015611c2f5780601f10611c0457610100808354040283529160200191611c2f565b820191906000526020600020905b815481529060010190602001808311611c1257829003601f168201915b5050505050905085565b611c41612a25565b6040518060a001604052808781526020018681526020018581526020018473ffffffffffffffffffffffffffffffffffffffff168152602001838152509050600181908060018154018082558091505090600182039060005260206000209060060201600090919290919091506000820151816000019080519060200190611cca929190612a6a565b50602082015181600101556040820151816002019080519060200190611cf1929190612a6a565b5060608201518160030160006101000a81548173ffffffffffffffffffffffffffffffffffffffff021916908373ffffffffffffffffffffffffffffffffffffffff1602179055506080820151816004019080519060200190611d55929190612a6a565b505050507fd27034f23f8291ab86ab3da722bb1ce4ddfe94c2f69c7e91d98ff4c57b420ede60018080549050036040518082815260200191505060405180910390a1505050505050565b60028181548110611dac57fe5b9060005260206000209060060201600091509050806000018054600181600116156101000203166002900480601f016020809104026020016040519081016040528092919081815260200182805460018160011615610100020316600290048015611e585780601f10611e2d57610100808354040283529160200191611e58565b820191906000526020600020905b815481529060010190602001808311611e3b57829003601f168201915b505050505090806001015490806002018054600181600116156101000203166002900480601f016020809104026020016040519081016040528092919081815260200182805460018160011615610100020316600290048015611efc5780601f10611ed157610100808354040283529160200191611efc565b820191906000526020600020905b815481529060010190602001808311611edf57829003601f168201915b5050505050908060030160009054906101000a900473ffffffffffffffffffffffffffffffffffffffff1690806004018054600181600116156101000203166002900480601f016020809104026020016040519081016040528092919081815260200182805460018160011615610100020316600290048015611fc05780601f10611f9557610100808354040283529160200191611fc0565b820191906000526020600020905b815481529060010190602001808311611fa357829003601f168201915b5050505050905085565b6000809054906101000a900473ffffffffffffffffffffffffffffffffffffffff1673ffffffffffffffffffffffffffffffffffffffff163373ffffffffffffffffffffffffffffffffffffffff161461202357600080fd5b6003828154811061203057fe5b906000526020600020906009020160080181908060018154018082558091505090600182039060005260206000200160009091929091909150908051906020019061207c9291906129a5565b50505050565b61208a612aea565b6040518060a001604052808781526020018681526020018581526020018473ffffffffffffffffffffffffffffffffffffffff168152602001838152509050600281908060018154018082558091505090600182039060005260206000209060060201600090919290919091506000820151816000019080519060200190612113929190612a6a565b5060208201518160010155604082015181600201908051906020019061213a929190612a6a565b5060608201518160030160006101000a81548173ffffffffffffffffffffffffffffffffffffffff021916908373ffffffffffffffffffffffffffffffffffffffff160217905550608082015181600401908051906020019061219e929190612a6a565b505050507f84d938253a09f6f1c18877f03794c04e160d67d7ec43ef4aa6de4dd0db9720dc6001600280549050036040518082815260200191505060405180910390a1505050505050565b600381815481106121f657fe5b90600052602060002090600902016000915090508060000160009054906101000a900473ffffffffffffffffffffffffffffffffffffffff16908060010160009054906101000a900473ffffffffffffffffffffffffffffffffffffffff16908060020160009054906101000a900473ffffffffffffffffffffffffffffffffffffffff1690806005018054600181600116156101000203166002900480601f0160208091040260200160405190810160405280929190818152602001828054600181600116156101000203166002900480156123145780601f106122e957610100808354040283529160200191612314565b820191906000526020600020905b8154815290600101906020018083116122f757829003601f168201915b505050505090806006018054600181600116156101000203166002900480601f0160208091040260200160405190810160405280929190818152602001828054600181600116156101000203166002900480156123b25780601f10612387576101008083540402835291602001916123b2565b820191906000526020600020905b81548152906001019060200180831161239557829003601f168201915b505050505090806007018054600181600116156101000203166002900480601f0160208091040260200160405190810160405280929190818152602001828054600181600116156101000203166002900480156124505780601f1061242557610100808354040283529160200191612450565b820191906000526020600020905b81548152906001019060200180831161243357829003601f168201915b5050505050905086565b6060806003848154811061246a57fe5b9060005260206000209060090201600301838154811061248657fe5b906000526020600020016003858154811061249d57fe5b906000526020600020906009020160040184815481106124b957fe5b90600052602060002001818054600181600116156101000203166002900480601f0160208091040260200160405190810160405280929190818152602001828054600181600116156101000203166002900480156125585780601f1061252d57610100808354040283529160200191612558565b820191906000526020600020905b81548152906001019060200180831161253b57829003601f168201915b50505050509150808054600181600116156101000203166002900480601f0160208091040260200160405190810160405280929190818152602001828054600181600116156101000203166002900480156125f45780601f106125c9576101008083540402835291602001916125f4565b820191906000526020600020905b8154815290600101906020018083116125d757829003601f168201915b50505050509050915091509250929050565b6000809054906101000a900473ffffffffffffffffffffffffffffffffffffffff1673ffffffffffffffffffffffffffffffffffffffff163373ffffffffffffffffffffffffffffffffffffffff161461265f57600080fd5b6060612669612b2f565b60405180610120016040528060028a8154811061268257fe5b906000526020600020906006020160030160009054906101000a900473ffffffffffffffffffffffffffffffffffffffff1673ffffffffffffffffffffffffffffffffffffffff168152602001600189815481106126dc57fe5b906000526020600020906006020160030160009054906101000a900473ffffffffffffffffffffffffffffffffffffffff1673ffffffffffffffffffffffffffffffffffffffff1681526020016001888154811061273657fe5b906000526020600020906006020160030160009054906101000a900473ffffffffffffffffffffffffffffffffffffffff1673ffffffffffffffffffffffffffffffffffffffff1681526020018381526020018381526020018681526020018581526020018481526020018381525090506003819080600181540180825580915050906001820390600052602060002090600902016000909192909190915060008201518160000160006101000a81548173ffffffffffffffffffffffffffffffffffffffff021916908373ffffffffffffffffffffffffffffffffffffffff16021790555060208201518160010160006101000a81548173ffffffffffffffffffffffffffffffffffffffff021916908373ffffffffffffffffffffffffffffffffffffffff16021790555060408201518160020160006101000a81548173ffffffffffffffffffffffffffffffffffffffff021916908373ffffffffffffffffffffffffffffffffffffffff16021790555060608201518160030190805190602001906128c6929190612bbd565b5060808201518160040190805190602001906128e3929190612bbd565b5060a0820151816005019080519060200190612900929190612a6a565b5060c082015181600601908051906020019061291d929190612a6a565b5060e082015181600701908051906020019061293a929190612a6a565b50610100820151816008019080519060200190612958929190612bbd565b505050507fca0f0263e10a85892496523b99b9450d1d6e40cbce860b150a7bbf062fbd4e406001600380549050036040518082815260200191505060405180910390a15050505050505050565b828054600181600116156101000203166002900490600052602060002090601f016020900481019282601f106129e657805160ff1916838001178555612a14565b82800160010185558215612a14579182015b82811115612a135782518255916020019190600101906129f8565b5b509050612a219190612c1d565b5090565b6040518060a00160405280606081526020016000815260200160608152602001600073ffffffffffffffffffffffffffffffffffffffff168152602001606081525090565b828054600181600116156101000203166002900490600052602060002090601f016020900481019282601f10612aab57805160ff1916838001178555612ad9565b82800160010185558215612ad9579182015b82811115612ad8578251825591602001919060010190612abd565b5b509050612ae69190612c1d565b5090565b6040518060a00160405280606081526020016000815260200160608152602001600073ffffffffffffffffffffffffffffffffffffffff168152602001606081525090565b604051806101200160405280600073ffffffffffffffffffffffffffffffffffffffff168152602001600073ffffffffffffffffffffffffffffffffffffffff168152602001600073ffffffffffffffffffffffffffffffffffffffff1681526020016060815260200160608152602001606081526020016060815260200160608152602001606081525090565b828054828255906000526020600020908101928215612c0c579160200282015b82811115612c0b578251829080519060200190612bfb929190612a6a565b5091602001919060010190612bdd565b5b509050612c199190612c42565b5090565b612c3f91905b80821115612c3b576000816000905550600101612c23565b5090565b90565b612c6b91905b80821115612c675760008181612c5e9190612c6e565b50600101612c48565b5090565b90565b50805460018160011615610100020316600290046000825580601f10612c945750612cb3565b601f016020900490600052602060002090810190612cb29190612c1d565b5b5056fea265627a7a7231582056dafa9a1f9323b7e9a150496840757382a3e5120783130368059f86f8b53cb364736f6c63430005100032",
  "source": "pragma solidity ^0.5.0;\r\n\r\ncontract Court {\r\n    address public owner;\r\n    modifier onlyOwner() {\r\n        if (msg.sender != owner) {\r\n            revert();\r\n        }\r\n        _;\r\n    }\r\n    \r\n    struct Lawyer {\r\n        string name;\r\n        uint phone;\r\n        string email;\r\n        address addr;\r\n        string pubkey;\r\n        mapping(uint => string) encryptedKeys;     //for each case\r\n    }\r\n    \r\n    struct Judge {\r\n        string name;\r\n        uint phone;\r\n        string email;\r\n        address addr;\r\n        string pubkey;\r\n        mapping(uint => string) encryptedKeys;\r\n    }\r\n    \r\n    Lawyer[] public lawyers;\r\n    Judge[] public judges;\r\n    \r\n    struct Case {\r\n        address judge;\r\n        address lawyer1;\r\n        address lawyer2;\r\n        string[] evidenceFileHash;\r\n        string[] evidenceFileType;\r\n        \r\n        string party_1_name;\r\n        string party_2_name;\r\n        string details;\r\n        string[] transcripts;\r\n    }\r\n    \r\n    Case[] public cases;\r\n    \r\n    event lawyerRegistered(uint _lawyerId);\r\n    event judgeRegistered(uint _judgeId);\r\n    event caseCreated(uint _caseId);\r\n    \r\n    function registerLawyer(string memory _name, uint _phone, string memory _email, address _addr, string memory _pubkey) public {\r\n        Lawyer memory l = Lawyer(_name, _phone, _email, _addr, _pubkey);\r\n        lawyers.push(l);\r\n        emit lawyerRegistered(lawyers.length-1);\r\n    }\r\n    function registerJudge(string memory _name, uint _phone, string memory _email, address _addr, string memory _pubkey) public {\r\n        Judge memory j = Judge(_name, _phone, _email, _addr, _pubkey);\r\n        judges.push(j);\r\n        emit judgeRegistered(judges.length-1);\r\n    }\r\n    \r\n    function newCase(uint _judgeId, uint _lawyer1Id, uint _lawyer2Id, string memory _party_1_name, string memory _party_2_name, string memory _details) public onlyOwner {\r\n        string[] memory empty;\r\n        Case memory tcase = Case(judges[_judgeId].addr, lawyers[_lawyer1Id].addr, lawyers[_lawyer2Id].addr, empty, empty, _party_1_name, _party_2_name, _details, empty);\r\n        cases.push(tcase);\r\n        \r\n        emit caseCreated(cases.length-1);\r\n    }\r\n    \r\n    // Evidence\r\n    function uploadEvidence(uint _caseId, string memory _fileHash, string memory _fileType) onlyOwner public {\r\n        // to compare String without importing StringUtils Contract:\r\n        string memory ipfshash = _fileHash;\r\n        require(keccak256(bytes(_fileHash)) != keccak256(bytes(\"\")) && keccak256(bytes(_fileType)) != keccak256(bytes(\"\")));    //here checking string Not Null\r\n        cases[_caseId].evidenceFileHash.push(_fileHash);\r\n        cases[_caseId].evidenceFileType.push(ipfshash);  \r\n    }\r\n    \r\n    function getEvidenceCount(uint _caseId) public view returns(uint) {\r\n        return cases[_caseId].evidenceFileHash.length;\r\n    }\r\n    function getEvidence(uint _caseId, uint _evidenceNo) public view returns(string memory FileHash, string memory FileType) {\r\n        return (cases[_caseId].evidenceFileHash[_evidenceNo], cases[_caseId].evidenceFileType[_evidenceNo]);\r\n    }\r\n    \r\n    //Transcript\r\n    function uploadTranscript(uint _caseId, string memory _transcript) onlyOwner public {\r\n        cases[_caseId].transcripts.push(_transcript);\r\n    }\r\n    function getTranscriptsCount(uint _caseId) public view returns(uint) {\r\n        return cases[_caseId].transcripts.length;\r\n    }\r\n    function getTranscript(uint _caseId, uint _transcriptNo) public view returns(string memory) {\r\n        return cases[_caseId].transcripts[_transcriptNo];\r\n    }\r\n    \r\n    //EncryptedKeys\r\n    function addEncryptedKey(bool _isLawyer, uint _ljId, uint _caseId, string memory _key) public onlyOwner {\r\n        if(_isLawyer) {\r\n            lawyers[_ljId].encryptedKeys[_caseId] = _key;\r\n        } else {\r\n            judges[_ljId].encryptedKeys[_caseId] = _key;\r\n        }\r\n    }\r\n    function getEncryptedKey(bool _isLawyer, uint _ljId, uint _caseId) public view returns(string memory) {\r\n        if(_isLawyer) {\r\n            return lawyers[_ljId].encryptedKeys[_caseId];\r\n        } else {\r\n            return judges[_ljId].encryptedKeys[_caseId];\r\n        }\r\n    }\r\n    \r\n    function getCaseAddresses(uint _caseId) public view returns(address judge, address lawyer1, address lawyer2) {\r\n        return(cases[_caseId].judge, cases[_caseId].lawyer1, cases[_caseId].lawyer2);\r\n    }\r\n    \r\n    constructor() public {\r\n        owner = msg.sender;\r\n    }\r\n}",
  "sourcePath": "D:/HackOFiesta/contracts/Court.sol",
  "compiler": {
    "name": "solc",
    "version": "0.5.16+commit.9c3226ce.Emscripten.clang"
  },
  "schemaVersion": "3.3.2",
  "updatedAt": "2021-04-17T19:35:39.369Z",
  "networkType": "ethereum",
  "devdoc": {
    "methods": {}
  },
  "userdoc": {
    "methods": {}
  }
}